:0300000002004CAF
:200008000000E2FBEAF2802C0000E0FBEAF08024E6B50202EBF62200E2B50202EBF22200DE
:20002800E0B50202EBF02230F6E0A88220F5D3EAC6F582228B822230F6E6A88220F5D980EE
:01004800CFE8
:0300A5000200490D
:030049000200F2C0
:2000A80090003CE0FCA3E0FDA3E0FEA3E0FF90003C74012CF0E43DA3F0E43EA3F0E43FA381
:2000C800F022AC82AD83AEF0FF900010ECF0EDA3F0EEA3F0EFA3F090000CE0A3E0A3E0A3E7
:2000E800E043E080F01200A880FB900030E0FCA3E0FDA3E0FEA3E0FF900024E0F508A3E01D
:20010800F509A3E0F50AA3E0F50BE4F50CF50DF50EF50F900034ECF0EDA3F0EEA3F0EFA3B3
:20012800F0900038E508F0E509A3F0E50AA3F0E50BA3F090003CE4F0A3F0A3F0A3F09000B3
:2001480030E0F8A3E0F9A3E0FAA3E0FBE8B5040EE9B5050AEAB50606EBB507028036900022
:2001680030E0FCA3E0FDA3E0FEA3E0FF900034ECF0EDA3F0EEA3F0EFA3F0E4F50CF50DC01E
:2001880007C006C005C0041200A8D004D005D006D0078030050CE4B50C02050DAA0CAB0D09
:2001A800C374609A74EA9B501B90000175F0517480C007C006C005C0041200CAD004D005CC
:2001C800D006D007900024E0F8A3E0F9A3E0FAA3E0FBE8B5080EE9B5090AEAB50A06EBB5B4
:2001E8000B02802C900024E0F508A3E0F509A3E0F50AA3E0F50B900038E508F0E509A3F001
:20020800E50AA3F0E50BA3F0E4F50EF50F020146900028E0F8A3E0F9A3E0FAA3E0FBB803DB
:200228000BB90008BA0005BB00028003020146050EE4B50E02050FAA0EAB0FC374609A74BB
:20024800EA9B400302014690000275F0517480C007C006C005C0041200CAD004D005D006D8
:05026800D00702014671
:06007B00E478FFF6D8FD59
:200059007900E94400601B7A00900271780075A000E493F2A308B8000205A0D9F4DAF275DB
:02007900A0FFE6
:200081007800E84400600A790075A000E4F309D8FC7800E84400600C7900900000E4F0A37F
:0400A100D8FCD9FAB4
:0D004C0075810F12026DE58260030200490C
:04026D007582002274
:00000001FF
